S00B00004C45442E7372656344
S11300000C9450000C946D000C946D000C946D00D5
S11300100C946D000C946D000C946D000C946D00A8
S11300200C946D000C946D000C946D000C946D0098
S11300300C946D000C946D000C946D000C946D0088
S11300400C946D000C946D000C946D000C946D0078
S11300500C946D000C946D000C946D000C946D0068
S11300600C946D000C946D000C946D000C946D0058
S11300700C946D000C946D000C946D000C946D0048
S11300800C946D000C946D000C946D000C946D0038
S11300900C946D000C946D000C946D000C946D0028
S11300A011241FBECFEFCDBFDFE3DEBF18E2A0E017
S11300B0B8E2E2EAFCE002C005900D92A830B10774
S11300C0D9F728E2A8E0B8E201C01D92A436B2072D
S11300D0E1F70E948F030C944F060C940000EF92FA
S11300E0FF920F93CF93DF937C01362FC0910428A6
S11300F0D0E04C9FC0014D9F900D1124E4E6F0E048
S1130100BF010E946805462F2C9FC0012D9F900DB2
S11301101124BF010E946805262F0C9FC0010D9F6A
S1130120900D1124BF010E946805832F90E0FC010B
S1130130EE0FFF1F8E0F9F1FF701E80FF91F40837B
S113014021836283DF91CF910F91FF90EF90089507
S11301508F929F92AF92BF92CF92DF92EF92FF92D3
S11301600F931F93CF93DF935C01E62FF0E0EF0131
S1130170CC0FDD1FCE0FDF1FC80FD91FE09004285E
S1130180F12CE49EC001E59E900DF49E900D112487
S11301900F2EF4E68F2E912CF02DB4010E946805E9
S11301A06B014881E29EC001E39E900DF29E900D8A
S11301B01124B4010E94680589819B01280F311D17
S11301C0E09EC001E19E900DF09E900D1124B401BB
S11301D00E9468058A81680F711DC40ED11CDD2040
S11301E014F4C12CD12CC882DF01AA0FBB1FAE0F9F
S11301F0BF1FAA0DBB1D332314F420E030E0119679
S11302002C93CF01880F991FE80FF91FEA0DFB1DEE
S1130210772314F460E070E06283DF91CF911F9143
S11302200F91FF90EF90DF90CF90BF90AF909F9091
S11302308F9008956EE170E00E944D030895CF926F
S1130240DF92FF920F931F93CF93DF930E94DC05FD
S11302506EE170E00E94680502E328EC40E0682F3C
S11302608AE098E20E946F00CAE0D8E2F12C6E01A5
S1130270898190E00B975CF000E010E026EF3FEFFF
S113028040E050E06F2D8AE098E20E94A800F60159
S1130290808190E006975CF000E010E02BEF3FEFE8
S11302A040E050E06F2D8AE098E20E94A800F394A9
S11302B02396FEE1FF12DBCF0E94DC0565E070E0CF
S11302C00E946805019771F40E94DC056EE170E0FC
S11302D00E94680504E624E648EC682F8AE098E268
S11302E00E946F008FE493EC0197F1F700C00000C7
S11302F0DF91CF911F910F91FF90DF90CF900895E0
S1130300CF92DF92EF92FF920F93CF93DF9380917E
S113031008289091092881709078992324F40197F2
S11303208E6F9F6F01968093082890930928C0E0F0
S11303300F2EF8E0CF2EF8E2DF2EF02DD0EAEE24D7
S1130340E394F12CF6014081042F079500270795CB
S1130350242F21954D9F402D11246C2F8AE098E283
S11303600E946F008091082890910928A701481BDA
S1130370590B042F079500270795242F2195D49F07
S1130380402D112461E06C0F8AE098E20E946F0016
S1130390CE5FCE31B9F6FFE724E88EE1F15020407C
S11303A08040E1F700C00000DF91CF910F91FF90F2
S11303B0EF90DF90CF900895EF92FF920F93CF9339
S11303C0DF9380910828909109286EE170E00E94E3
S11303D068058093082890930928C0E0D0E00F2E88
S11303E0FEE1EF2EF12CF02D809108289091092840
S11303F08C0F9D1FB7010E946805BC017727072E4B
S1130400000C880B990B0E946F0420E030E04FE74A
S113041053E40E94FB0420E030E040EF51E40E94EA
S1130420CC030E943E04062F20E040E06C2F8AE0BB
S113043098E20E946F002196CE31D105A9F68FE48F
S113044093EC0197F1F700C00000DF91CF910F9179
S1130450FF90EF900895CF92DF92EF92FF920F9367
S11304601F93CF93DF9380910828909109286EE120
S113047070E00E9468058093082890930928C0E0E2
S1130480D0E00F2EFEE1EF2EF12CF02DC0900828C5
S1130490D0900928CC0EDD1EC6014496B7010E94F7
S11304A06805BC017727072E000C880B990B0E9466
S11304B06F0420E030E04FE753E40E94FB0420E0A7
S11304C030E040EF51E40E94CC030E943E04062F2A
S11304D0C6010A96B7010E946805BC017727072E5A
S11304E0000C880B990B0E946F0420E030E04FE76A
S11304F053E40E94FB0420E030E040EF51E40E940A
S1130500CC030E943E04162FC601B7010E94680561
S1130510BC017727072E000C880B990B0E946F04EF
S113052020E030E04FE753E40E94FB0420E030E099
S113053040EF51E40E94CC030E943E04462F212F39
S11305406C2F8AE098E20E946F002196CE31D1058B
S113055009F09CCF2FEB87E299E021508040904036
S1130560E1F700C00000DF91CF911F910F91FF9040
S1130570EF90DF90CF9008950F93CF93DF930E9475
S1130580DC05CEE1D0E0BE010E94680502E328EC60
S113059040E0682F8AE098E20E946F000E94DC0528
S11305A0BE010E94680508EC20E042E3682F8AE05F
S11305B098E20E946F000E94DC05BE010E9468055B
S11305C000E022E348EC682F8AE098E20E946F0082
S11305D0DF91CF910F910895CF92DF92FF920F9305
S11305E01F93CF93DF930E94DC056EE170E00E94BD
S11305F0680502E328EC40E0682F8AE098E20E9454
S11306006F00CAE0D8E2F12C6E01898190E00B976B
S11306105CF000E010E026EF3FEF40E050E06F2D8B
S11306208AE098E20E94A800F601808190E0069793
S11306305CF000E010E02BEF3FEF40E050E06F2D66
S11306408AE098E20E94A800F3942396FEE1FF1248
S1130650DBCF0E94DC0565E070E00E94680501972D
S113066071F40E94DC056EE170E00E94680504E606
S113067024E648EC682F8AE098E20E946F008FE439
S113068093EC0197F1F700C00000DF91CF911F9127
S11306900F91FF90DF90CF900895CF93DF93FC01EB
S11306A080E180930104F8949B0121503109672B68
S11306B009F42BC0C0E0D4E00190008007D0029080
S11306C005D001900190019001D01BC008D007D043
S11306D006D005D004D003D002D001D008958D8374
S11306E0001C000000000000000008F08E830000E1
S11306F000000000000000000000000008F48E83E9
S113070008952150310908F0D7CF78948FE891E00B
S11307100197F1F700C00000DF91CF91089588EDB3
S113072084BF109261008091052890910628823040
S1130730910599F02CF4009751F0019759F018C0E5
S11307408430910581F064F0059781F011C00E9416
S11307501F010EC00E9480010BC00E94DC0108C072
S11307600E942B0205C00E94BC0202C00E94EC023F
S113077080910828909109280196809308289093E5
S113078009288AE098E20E941A018FE493EC019709
S1130790F1F700C00000C7CF0E94E0030C94C1042D
S11307A00E94BA0458F00E94B30440F029F45F3F59
S11307B029F00C94AA0451110C94F5040C94B0047F
S11307C00E94D20468F39923B1F3552391F3951B46
S11307D0550BBB27AA2762177307840738F09F5F5E
S11307E05F4F220F331F441FAA1FA9F335D00E2ECB
S11307F03AF0E0E832D091505040E695001CCAF738
S11308002BD0FE2F29D0660F771F881FBB1F2617FA
S113081037074807AB07B0E809F0BB0B802DBF01D1
S1130820FF2793585F4F3AF09E3F510578F00C94A0
S1130830AA040C94F5045F3FE4F3983ED4F3869540
S113084077956795B795F7959F5FC9F7880F911DC1
S11308509695879597F90895E1E0660F771F881FAD
S1130860BB1F621773078407BA0720F0621B730B60
S1130870840BBA0BEE1F88F7E09508950E94DA0402
S113088088F09F5798F0B92F9927B751B0F0E1F04D
S1130890660F771F881F991F1AF0BA95C9F714C0FD
S11308A0B13091F00E94F404B1E008950C94F40482
S11308B0672F782F8827B85F39F0B93FCCF3869536
S11308C077956795B395D9F73EF490958095709593
S11308D061957F4F8F4F9F4F0895E89409C097FB10
S11308E03EF490958095709561957F4F8F4F9F4F03
S11308F09923A9F0F92F96E9BB279395F695879547
S113090077956795B795F111F8CFFAF4BB0F11F409
S113091060FF1BC06F5F7F4F8F4F9F4F16C08823B0
S113092011F096E911C0772321F09EE8872F762FE6
S113093005C0662371F096E8862F70E060E02AF027
S11309409A95660F771F881FDAF7880F9695879513
S113095097F9089597F99F6780E870E060E008953B
S11309609FEF80EC089500240A94161617061806C3
S11309700906089500240A9412161306140605069F
S11309800895092E0394000C11F4882352F0BB0F30
S113099040F4BF2B11F460FF04C06F5F7F4F8F4F93
S11309A09F4F089557FD9058440F551F59F05F3FCE
S11309B071F04795880F97FB991F61F09F3F79F07D
S11309C087950895121613061406551FF2CF4695FF
S11309D0F1DF08C0161617061806991FF1CF869581
S11309E07105610508940895E894BB276627772765
S11309F0CB0197F908950E940E050C94C1040E943E
S1130A00B30438F00E94BA0420F0952311F00C943A
S1130A10AA040C94B00411240C94F5040E94D2048A
S1130A2070F3959FC1F3950F50E0551F629FF0013D
S1130A30729FBB27F00DB11D639FAA27F00DB11D56
S1130A40AA1F649F6627B00DA11D661F829F2227DF
S1130A50B00DA11D621F739FB00DA11D621F839F66
S1130A60A00D611D221F749F3327A00D611D231F3C
S1130A70849F600D211D822F762F6A2F11249F578A
S1130A8050409AF0F1F088234AF0EE0FFF1FBB1F8D
S1130A90661F771F881F91505040A9F79E3F51054C
S1130AA080F00C94AA040C94F5045F3FE4F3983EA0
S1130AB0D4F3869577956795B795F795E7959F5FF6
S1130AC0C1F7FE2B880F911D9695879597F9089588
S1130AD097FB072E16F4009407D077FD09D00E94E7
S1130AE07C0507FC05D03EF4909581959F4F0895B1
S1130AF0709561957F4F0895AA1BBB1B51E107C0F8
S1130B00AA1FBB1FA617B70710F0A61BB70B881F99
S1130B10991F5A95A9F780959095BC01CD01089528
S1130B208F929F92AF92BF92CF92DF92EF92FF92F9
S1130B30CF93DF93EC01688179818A819B81611570
S1130B4071058105910521F464E279ED8BE597E067
S1130B502DE133EF41E050E00E94EC0549015A01D8
S1130B609B01AC01A7EAB1E40E940B066B017C0176
S1130B70ACEEB4EFA50194010E941906DC01CB018F
S1130B808C0D9D1DAE1DBF1DB7FF03C00197A109AC
S1130B90B04888839983AA83BB839F77DF91CF91E1
S1130BA0FF90EF90DF90CF90BF90AF909F908F9089
S1130BB008950E949005089580E098E20E949005AF
S1130BC00895A0E0B0E08093002890930128A093BA
S1130BD00228B09303280895052E97FB1EF4009471
S1130BE00E94030657FD07D00E941E0607FC03D08F
S1130BF04EF40C94030650954095309521953F4F43
S1130C004F4F5F4F089590958095709561957F4FF4
S1130C108F4F9F4F08950E944006A59F900DB49F4B
S1130C20900DA49F800D911D11240895B7FF0C947D
S1130C300B060E940B06821B930B0895A1E21A2E49
S1130C40AA1BBB1BFD010DC0AA1FBB1FEE1FFF1F6C
S1130C50A217B307E407F50720F0A21BB30BE40BBC
S1130C60F50B661F771F881F991F1A9469F7609503
S1130C707095809590959B01AC01BD01CF010895BD
S1130C80A29FB001B39FC001A39F700D811D1124C9
S1130C90911DB29F700D811D1124911D0895F8942A
S1050CA0FFCF80
S10B0CA20100000064050000DC
S9030000FC
