:100000000C9450000C946D000C946D000C946D00D9
:100010000C946D000C946D000C946D000C946D00AC
:100020000C946D000C946D000C946D000C946D009C
:100030000C946D000C946D000C946D000C946D008C
:100040000C946D000C946D000C946D000C946D007C
:100050000C946D000C946D000C946D000C946D006C
:100060000C946D000C946D000C946D000C946D005C
:100070000C946D000C946D000C946D000C946D004C
:100080000C946D000C946D000C946D000C946D003C
:100090000C946D000C946D000C946D000C946D002C
:1000A00011241FBECFEFCDBFDFE3DEBF18E2A0E01B
:1000B000B8E2EEEBFBE002C005900D92A830B1076C
:1000C000D9F728E2A8E0B8E201C01D92A832B20731
:1000D000E1F70E941F030C94DD050C940000EF92E1
:1000E000FF920F93CF93DF937C01362FF09104287A
:1000F000F49FC0011124C4E6D0E0BE010E94F604C2
:10010000462FF29FC0011124BE010E94F604262F43
:10011000F09FC0011124BE010E94F604832F90E0DD
:10012000FC01EE0FFF1F8E0F9F1FF701E80FF91F55
:10013000408321836283DF91CF910F91FF90EF90F5
:1001400008954F925F926F927F928F929F92AF929B
:10015000BF92CF92DF92EF92FF920F931F93CF93B4
:10016000DF936C01E62FF0E03C0183E0689F600CB8
:10017000711C1124E0900428F12CE49EC001E59E3E
:10018000900DF49E900D112444E6842E912CB40120
:100190000E94F604EB01D3014C91E29EC001E39E64
:1001A000900DF29E900D1124B4010E94F6045F019F
:1001B000AA0CBB1C95012E0F3F1F2C0D3D1DD90114
:1001C00011968C912B01480E511CE09EC001E19EBE
:1001D000900DF09E900D1124B4010E94F604D901F7
:1001E00012968C91680F711DC40FD11DD7FF02C0EC
:1001F000C0E0D0E0D301CC93D501AE0FBF1FAC0D52
:10020000BD1D57FE02C0412C512C11964C92EA0D97
:10021000FB1DEC0DFD1D77FF02C060E070E0628306
:10022000DF91CF911F910F91FF90EF90DF90CF90D2
:10023000BF90AF909F908F907F906F905F904F9006
:1002400008956AE070E00C94E102EF92FF920F9340
:10025000CF93DF93809108289091092862E070E0A5
:100260000E94F6048093082890930928C0E0D0EA01
:10027000EE24E394F12C40910828042F07950027E1
:100280000795242F21954D9F402D11246C2F8AE036
:1002900098E20E946F008091082890910928A70198
:1002A000481B590B042F079500270795242F2195EC
:1002B000D49F402D112461E06C0F8AE098E20E94E7
:1002C0006F00CE5FCA30B9F62FE784E89EE1215077
:1002D00080409040E1F700C00000DF91CF910F9186
:1002E000FF90EF900895EF92FF920F93CF93DF93DB
:1002F00080910828909109286AE070E00E94F60435
:100300008093082890930928C0E0D0E08AE0E82E86
:10031000F12C80910828909109288C0F9D1FB7011E
:100320000E94F604BC017727072E000C880B990B5E
:100330000E94FD0320E030E04FE753E40E9489046F
:1003400020E030E040E251E40E945A030E94CC03D6
:10035000062F20E040E06C2F8AE098E20E946F00B8
:100360002196CA30D105A9F68FE493EC0197F1F7F5
:1003700000C00000DF91CF910F91FF90EF900895A2
:10038000CF92DF92EF92FF920F931F93CF93DF9361
:1003900080910828909109286AE070E00E94F60494
:1003A0008093082890930928C0E0D0E08AE0E82EE6
:1003B000F12CC0900828D0900928CC0EDD1EC60173
:1003C0000696B7010E94F604BC017727072E000CA1
:1003D000880B990B0E94FD0320E030E04FE753E4C7
:1003E0000E94890420E030E040E251E40E945A0378
:1003F0000E94CC03062FC6010396B7010E94F604A3
:10040000BC017727072E000C880B990B0E94FD0377
:1004100020E030E04FE753E40E94890420E030E020
:1004200040E251E40E945A030E94CC03162FC601F9
:10043000B7010E94F604BC017727072E000C880B39
:10044000990B0E94FD0320E030E04FE753E40E9447
:10045000890420E030E040E251E40E945A030E9407
:10046000CC03462F212F6C2F8AE098E20E946F0068
:100470002196CA30D10509F09CCF2FEB87E299E095
:10048000215080409040E1F700C00000DF91CF9103
:100490001F910F91FF90EF90DF90CF9008950F93F1
:1004A000CF93DF930E946A05CAE0D0E0BE010E94AC
:1004B000F60402E328EC40E0682F8AE098E20E940C
:1004C0006F000E946A05BE010E94F60408EC20E05D
:1004D00042E3682F8AE098E20E946F000E946A055A
:1004E000BE010E94F60400E022E348EC682F8AE097
:1004F00098E20E946F00DF91CF910F910895EF92E3
:10050000FF920F931F93CF930E946A056AE070E0F9
:100510000E94F60402E328EC40E0682F8AE098E2AB
:100520000E946F008AE0E82E88E2F82EC0E0F70112
:10053000818190E00B975CF000E010E026EF3FEF48
:1005400040E050E06C2F8AE098E20E94A100F701A1
:10055000808190E006975CF000E010E02BEF3FEF29
:1005600040E050E06C2F8AE098E20E94A100CF5F4B
:10057000F3E0EF0EF11CCA30D1F60E946A0565E087
:1005800070E00E94F604019771F40E946A056AE027
:1005900070E00E94F60404E624E648EC682F8AE046
:1005A00098E20E946F008FE493EC0197F1F700C08E
:1005B0000000CF911F910F91FF90EF9008950C9440
:1005C0007F02CF93DF9320E12093A104F894C0EA47
:1005D000D4E06150710908F428C0FC01019000804A
:1005E00007D0029005D001900190019001D01BC06E
:1005F00008D007D006D005D004D003D002D001D057
:1006000008952D83001C000000000000000008F089
:100610002E83000000000000000000000000000029
:1006200008F42E830895CF01D4CF78948FE891E019
:100630000197F1F700C00000DF91CF91089588ED98
:1006400084BF109261008091052890910628823025
:100650009105A1F03CF4009771F00197B9F40E9464
:10066000250114C08430910579F05CF0059771F490
:100670000E947F020BC00E94DF0208C00E9473012B
:1006800005C00E94C00102C00E944F02809108284C
:1006900090910928019680930828909309288AE070
:1006A00098E20E9421018FE493EC0197F1F700C0DA
:1006B0000000C9CF0E946E030C944F040E944804AE
:1006C00058F00E94410440F029F45F3F29F00C9457
:1006D000380451110C9483040C943E040E9460046D
:1006E00068F39923B1F3552391F3951B550BBB2761
:1006F000AA2762177307840738F09F5F5F4F220FA6
:10070000331F441FAA1FA9F335D00E2E3AF0E0E89C
:1007100032D091505040E695001CCAF72BD0FE2FE6
:1007200029D0660F771F881FBB1F2617370748077A
:10073000AB07B0E809F0BB0B802DBF01FF27935832
:100740005F4F3AF09E3F510578F00C9438040C94BA
:1007500083045F3FE4F3983ED4F3869577956795DD
:10076000B795F7959F5FC9F7880F911D9695879567
:1007700097F90895E1E0660F771F881FBB1F621786
:1007800073078407BA0720F0621B730B840BBA0B44
:10079000EE1F88F7E09508950E94680488F09F573F
:1007A00098F0B92F9927B751B0F0E1F0660F771F95
:1007B000881F991F1AF0BA95C9F714C0B13091F08B
:1007C0000E948204B1E008950C948204672F782F70
:1007D0008827B85F39F0B93FCCF386957795679550
:1007E000B395D9F73EF490958095709561957F4FBC
:1007F0008F4F9F4F0895E89409C097FB3EF4909562
:100800008095709561957F4F8F4F9F4F9923A9F0E9
:10081000F92F96E9BB279395F69587957795679578
:10082000B795F111F8CFFAF4BB0F11F460FF1BC0BC
:100830006F5F7F4F8F4F9F4F16C0882311F096E94F
:1008400011C0772321F09EE8872F762F05C06623FD
:1008500071F096E8862F70E060E02AF09A95660FB6
:10086000771F881FDAF7880F9695879597F908956F
:1008700097F99F6780E870E060E008959FEF80EC53
:10088000089500240A9416161706180609060895F6
:1008900000240A9412161306140605060895092E5C
:1008A0000394000C11F4882352F0BB0F40F4BF2BCB
:1008B00011F460FF04C06F5F7F4F8F4F9F4F08950B
:1008C00057FD9058440F551F59F05F3F71F0479501
:1008D000880F97FB991F61F09F3F79F087950895E6
:1008E000121613061406551FF2CF4695F1DF08C005
:1008F000161617061806991FF1CF86957105610522
:1009000008940895E894BB2766277727CB0197F9C9
:1009100008950E949C040C944F040E94410438F0F6
:100920000E94480420F0952311F00C9438040C9494
:100930003E0411240C9483040E94600470F3959F7C
:10094000C1F3950F50E0551F629FF001729FBB27C6
:10095000F00DB11D639FAA27F00DB11DAA1F649F62
:100960006627B00DA11D661F829F2227B00DA11D15
:10097000621F739FB00DA11D621F839FA00D611D9B
:10098000221F749F3327A00D611D231F849F600DBC
:10099000211D822F762F6A2F11249F5750409AF0E5
:1009A000F1F088234AF0EE0FFF1FBB1F661F771F71
:1009B000881F91505040A9F79E3F510580F00C943C
:1009C00038040C9483045F3FE4F3983ED4F3869597
:1009D00077956795B795F795E7959F5FC1F7FE2BDC
:1009E000880F911D9695879597F9089597FB072E87
:1009F00016F4009407D077FD09D00E940A0507FC81
:100A000005D03EF4909581959F4F0895709561951E
:100A10007F4F0895AA1BBB1B51E107C0AA1FBB1F34
:100A2000A617B70710F0A61BB70B881F991F5A957A
:100A3000A9F780959095BC01CD0108958F929F9262
:100A4000AF92BF92CF92DF92EF92FF92CF93DF935C
:100A5000EC01688179818A819B816115710581052D
:100A6000910521F464E279ED8BE597E02DE133EF18
:100A700041E050E00E947A0549015A019B01AC0116
:100A8000A7EAB1E40E9499056B017C01ACEEB4EFDA
:100A9000A50194010E94A705DC01CB018C0D9D1DD1
:100AA000AE1DBF1DB7FF03C00197A109B0488883E1
:100AB0009983AA83BB839F77DF91CF91FF90EF90BB
:100AC000DF90CF90BF90AF909F908F9008950E943D
:100AD0001E05089580E098E20E941E050895A0E09A
:100AE000B0E08093002890930128A0930228B0934F
:100AF00003280895052E97FB1EF400940E9491058B
:100B000057FD07D00E94AC0507FC03D04EF40C94AF
:100B1000910550954095309521953F4F4F4F5F4F30
:100B2000089590958095709561957F4F8F4F9F4F59
:100B300008950E94CE05A59F900DB49F900DA49F8F
:100B4000800D911D11240895B7FF0C9499050E9402
:100B50009905821B930B0895A1E21A2EAA1BBB1BB9
:100B6000FD010DC0AA1FBB1FEE1FFF1FA217B30779
:100B7000E407F50720F0A21BB30BE40BF50B661F8F
:100B8000771F881F991F1A9469F760957095809553
:100B900090959B01AC01BD01CF010895A29FB001CA
:100BA000B39FC001A39F700D811D1124911DB29FA1
:0E0BB000700D811D1124911D0895F894FFCF42
:080BBE000100000064050000C5
:00000001FF
